:1004D40000C1814001C0804101C0804100C1814010
:1004E40001C0804100C1814000C1814001C0804100
:1004F40001C0804100C1814000C1814001C08041F0
:1005040000C1814001C0804101C0804100C18140DF
:1005140001C0804100C1814000C1814001C08041CF
:1005240000C1814001C0804101C0804100C18140BF
:1005340000C1814001C0804101C0804100C18140AF
:1005440001C0804100C1814000C1814001C080419F
:1005540001C0804100C1814000C1814001C080418F
:1005640000C1814001C0804101C0804100C181407F
:1005740000C1814001C0804101C0804100C181406F
:1005840001C0804100C1814000C1814001C080415F
:1005940000C1814001C0804101C0804100C181404F
:1005A40001C0804100C1814000C1814001C080413F
:1005B40001C0804100C1814000C1814001C080412F
:1005C40000C1814001C0804101C0804100C181401F
:1005D40000C0C101C30302C2C60607C705C5C404DF
:1005E400CC0C0DCD0FCFCE0E0ACACB0BC90908C84F
:1005F400D81819D91BDBDA1A1EDEDF1FDD1D1CDC3F
:1006040014D4D515D71716D6D21213D311D1D010AE
:10061400F03031F133F3F23236F6F737F53534F49E
:100624003CFCFD3DFF3F3EFEFA3A3BFB39F9F8380E
:1006340028E8E929EB2B2AEAEE2E2FEF2DEDEC2CFE
:10064400E42425E527E7E62622E2E323E12120E06E
:10065400A06061A163A3A26266A6A767A56564A45E
:100664006CACAD6DAF6F6EAEAA6A6BAB69A9A868CE
:1006740078B8B979BB7B7ABABE7E7FBF7DBDBC7CBE
:10068400B47475B577B7B67672B2B373B17170B02E
:10069400509091519353529296565797559594541E
:1006A4009C5C5D9D5F9F9E5E5A9A9B5B995958988E
:1006B400884849894B8B8A4A4E8E8F4F8D4D4C8C7E
:1006C40044848545874746868242438341818040EE
:04000300410A370077
:100A5D0012104F12107E12000E1210F8D2AF120BA0
:100A6D008A900020E0F599900A377402F07F0A12FF
:100A7D0010E47F007E401210B7900A36EFF0900020
:100A8D0020F0D3900A7DE094C8900A7CE094004059
:100A9D0033E4F0A3F0900A7FE004F07006900A7E34
:100AAD00E004F0900A81E004F07006900A80E00402
:100ABD00F0D3900A7FE09464900A7EE094004004A5
:100ACD00E4F0A3F0900A80E0FEA3E0FFC3940AEEE9
:100ADD0094005009C2B2E4900A3CF08039C3EF94FF
:100AED0020EE94035004D2B2802CC3EF942AEE94DE
:100AFD00035019BE0320BF201D120CF7900A81E090
:100B0D0004F07012900A80E004F0800AE4900A80EC
:100B1D00F0A3F01208BDC3900A45E09490900A44EA
:100B2D00E09401402EE4F0A3F0900A32E0D394005B
:100B3D004008120046E4900A32F01202A7C3900A50
:100B4D0043E094F4900A42E094014007E4F0A3F0EE
:100B5D001206D4C3900A49E09490900A48E094019B
:100B6D004015E4F0A3F0900A33E0D394004008124E
:0D0B7D000C44E4900A33F0120026020A8FA7
:1008BD00900A31E004F0D2A7900A307411F0900A3A
:1008CD00357401F0E49001ABF0A3F0A3F0A3740D27
:1008DD00F09001B17420F09001B4742EF09001B637
:1008ED007441F0A37420F09001BB7456F0900A315E
:1008FD00E0640160030209869001AF7433F0A2B485
:10090D00E433A3F0E02430F090023FE0FFA3E09049
:10091D000A82CFF0A3EFF0900A82E0FEA3E0FF7C05
:10092D00007D64120E3AEF24309001B2F0900A82ED
:10093D00E0FEA3E0FF7C007D64120E3A7E007F0A8C
:10094D00CFCDCFCECCCE120E3AEF24309001B3F0F6
:10095D00900A82E0FEA3E0FF7C007D64120E3A7ED9
:10096D00007F0ACFCDCFCECCCE120E3AED243090F3
:10097D0001B5F090024F020A09E4900A31F090019E
:10098D00AF7434F0A2B5E433A3F0E02430F090025C
:10099D0047E0FFA3E0900A82CFF0A3EFF0900A8228
:1009AD00E0FEA3E0FF7C007D64120E3AEF24309050
:1009BD0001B2F0900A82E0FEA3E0FF7C007D64129C
:1009CD000E3A7E007F0ACFCDCFCECCCE120E3AEFAF
:1009DD0024309001B3F0900A82E0FEA3E0FF7C008A
:1009ED007D64120E3A7E007F0ACFCDCFCECCCE12D3
:1009FD000E3AED24309001B5F0900253E0FAA3E0E9
:100A0D00FB7C007D64FFAE02120E3AEF24309001A4
:100A1D00B8F07C007D64AF03AE02120E3A7E007F0B
:100A2D000ACFCDCFCECCCE120E3AEF2430A3F07C30
:100A3D00007D64AF03AE02120E3A7E007F0ACFCD69
:0F0A4D00CFCECCCE120E3AED2430A3F0E4F59BC1
:010A5C002277
:100C4400900A33E0D394005003020CF69000A7E01E
:100C54006003020CF604F0A3E06003020CF6A3E0C8
:100C64006003020CF6A3E0643070509000ADE054D1
:100C74000F900A36F09000ACE0540F75F00AA4FF10
:100C8400900A36E02FF09000ABE0540F75F064A4A6
:100C9400FF900A36E02FF07F007E401210CF900ABA
:100CA40036E0FD7F007E4012109E7F007E401210D1
:100CB400B7900A36EFF0900020F0229000AAE0FDF1
:100CC400B4311620B40BE490022DF0A3E054FEF0EE
:100CD4002290022EE04401F022EDB4321520B50B2F
:100CE400E490022DF0A3E054FDF02290022EE044A3
:030CF40002F022E9
:10104F00759850438E40538EFE53890F758BC7751D
:10105F008DFEC2ABD28ED2AC759A50438E0475D72B
:0F106F00C775D6FE438E1043AF01C2A7C2CD2274
:10107E0075913C75923CE4F593F594F595F596F5DE
:10108E00B1F5B2F5C9F5CA90022DF0A37403F022A2
:10000E00758A88758CFFC28DD28C438E805389FC85
:05001E00D2A9D28C22E2
:0F10F800759D3CE4F5BD900A37E04488F5BC22B5
:03000B00020EA53D
:100EA500C0E0C083C082C0D075D000C007900A7D65
:100EB500E004F07006900A7CE004F030A110D20046
:100EC500900A41E0C3940A5029E004F080243000E0
:100ED50021C200900A41E0FF900A3CE0244AF582D5
:100EE500E4340AF583EFF0900A3CE004F0900A41FF
:100EF500E4F0900A45E004F07006900A44E004F03E
:100F0500900A49E004F07006900A48E004F0D00722
:090F1500D0D0D082D083D0E032AC
:03002300020F9336
:100F9300C0E0C083C082C0D075D000C006C0073097
:100FA3009826C298900A44E4F0A3F0900A32E0FF36
:100FB300C39480501374252FF582E43400F583E540
:100FC30099F0900A32E004F0309927C299900A2FE1
:100FD300E0FF900A34E0FEC39F501574252EF5827E
:100FE300E43400F583E0F599900A34E004F08002DC
:0F0FF300C2CDD007D006D0D0D082D083D0E0328C
:03004300020F1E8B
:100F1E00C0E0C083C082C0D075D000C006C007E557
:100F2E009A30E027539AFE900A48E4F0A3F0900A14
:100F3E0033E0FFC39480501374A72FF582E434007E
:100F4E00F583E59BF0900A33E004F0E59A30E12852
:100F5E00539AFD900A30E0FF900A35E0FEC39F5091
:100F6E001574AB2EF582E43401F583E0F59B900AFF
:100F7E0035E004F08002C2A7D007D006D0D0D082D0
:050F8E00D083D0E03229
:100B8A0020B60990022CE04401F0800AE490022B7E
:100B9A00F0A3E054FEF020B70990022CE04402F0E2
:100BAA00800AE490022BF0A3E054FDF020A0099003
:100BBA00022CE04404F0800AE490022BF0A3E054F3
:100BCA00FBF020A10990022CE04408F0800AE4908E
:100BDA00022BF0A3E054F7F020A20990022CE04483
:100BEA0010F0800AE490022BF0A3E054EFF020A367
:100BFA000990022CE04420F0800AE490022BF0A332
:100C0A00E054DFF020A40990022CE04440F0800A6E
:100C1A00E490022BF0A3E054BFF020A50990022C27
:100C2A00E04480F0800AE490022BF0A3E0547FF0C5
:0A0C3A0090022BA3E0900020F022AE
:08100200900A88EEF0A3EFF064
:10100A007FFF7DFFE4F9900A8874FFF5F0120E8FD6
:10101A0045F0602C742529F582E43400F583E06DEF
:10102A00FB7A000924D4F582EA3404F583E4936F49
:10103A00FD74D42BF582EA3405F583E493FF80C668
:04104A00EFFEEDFFC9
:01104E00227F
:10004600900020E0FF900025E06F60030202A6907A
:100056000A32E024FEFFE434FFFE121002AD07ACC4
:1000660006900A32E0FB2424F582E43400F583E0AE
:10007600FE74232BF582E43400F583E07A00240035
:10008600FFEA3EFEEF6D7002EE6C60030202A69080
:100096000027E0FF900A82E4F0A3EFF0E0F8E4F036
:1000A600E8900A82F0900028E0FF900A83E02FF0A3
:1000B600900A82E03400F0A3E025E0F0900A82E0A6
:1000C60033F0900026E0640360030201A1900A3237
:1000D600E02422F582E43400F583E075F002A4FF03
:1000E600AEF0900A84EEF0A3EFF09000267403F0D1
:1000F600A3EFF0900A86E4F0A37403F0900A85E07B
:100106002403FF900A84E03400FE900A86E0FAA3F6
:10011600E0FBC39FEA9E5044900A83E025E0FF90EF
:100126000A82E033FE742B2FF58274023EF583A318
:10013600E0FF74252BF58274003AF583EFF0900A00
:1001460083E004F07006900A82E004F0900A87E0EB
:1001560004F070A8900A86E004F080A0D2CD900A40
:1001660085E02403FF900A84E03400FE121002ACFE
:1001760006AD07ECFF900A84E0FAA3E0FB2429F51C
:100186008274003AF583EFF0AF0574282BF582747C
:10019600003AF583EFF0EB2405805F900026E0F946
:1001A6006406705C900029E0FD900A83E025E0FF7C
:1001B600900A82E033FE742B2FF58274023EF5839B
:1001C600E4F0A3EDF0900A83E004F07006900A8252
:1001D600E004F090002AE0FD900A83E025E0FF901D
:1001E6000A82E033FE742B2FF58274023EF583E417
:1001F600F0A3EDF0D2CD900A32E0900A2F020299D8
:10020600E9641060030202A690002BE02407FEE4D6
:1002160033900A84F0A3CEF0A3E4F0A37407F09021
:100226000A84E0FEA3E0FFA3E0FAA3E0FBC39FEA93
:100236009E504674252BF58274003AF583E0FB90B8
:100246000A83E025E0FF900A82E033FE742B2FF547
:100256008274023EF583E4F0A3EBF0900A83E00497
:10026600F07006900A82E004F0900A87E004F070CD
:10027600AE900A86E004F080A67F067E0012100289
:10028600AC06EC90002CF090002BEFF0D2CD900A4B
:100296002F7408F0900A347401F0900020E0F5996C
:0102A6002235
:1000260090022DA3E0FF30E004C2B48002D2B4EF08
:0900360030E103C2B522D2B5226B
:1002A700900A37E0FD6404600302033CAFBDA3F08E
:1002B700A3EFF0900A38E0FEA3E07802C333CE3311
:1002C700CED8F9F0EE900A38F0AFBEA3E02FF09049
:1002D7000A38E03400F0E0FAA3E0FBEAFF90022FCF
:1002E700E4F0A3EFF0AF03A3E4F0A3EFF0900A3735
:1002F7007405F04488F5BC9000A5E0FEA3E0FF90EC
:100307000A38E0FAA3E0FBD39FEA9E40099000A5D4
:10031700EAF0A3EBF022900021E0FEA3E0FFC3EB9D
:100327009FEA9E40030204D3900A38E0FFA3E090BF
:1003370000210203CCED640560030203D2AFBD9038
:100347000A3AF0A3EFF0900A3AE0FEA3E07802C37E
:1003570033CE33CED8F9F0EE900A3AF0AFBEA3E031
:100367002FF0900A3AE03400F0E0FCA3E0FDECFF48
:10037700900233E4F0A3EFF0AF05A3E4F0A3EFF0AE
:10038700900A377402F04488F5BC900127E0FEA379
:10039700E0FF900A3AE0FCA3E0FDD39FEC9E400902
:1003A700900127ECF0A3EDF022900023E0FEA3E0FC
:1003B700FFC3ED9FEC9E40030204D3900A3AE0FF8F
:1003C700A3E0900023CFF0A3EFF022900A37E0FDDF
:1003D7006402707AAFBD900A3DF0A3EFF0900A3D3A
:1003E700E0FEA3E07802C333CE33CED8F9F0EE9027
:1003F7000A3DF0AFBEA3E02FF0900A3DE03400F0D5
:10040700E0FAA3E0FBEAFF900237E4F0A3EFF0AFD6
:1004170003A3E4F0A3EFF0900A377403F04488F5E0
:10042700BC900A2BE0FEA3E0FF900A3DE0FAA3E0B0
:10043700FBD39FEA9E4008900A2BEAF0A3EBF090CB
:100447000A43E004F07006900A42E004F022ED64EB
:10045700037079AFBD900A3FF0A3EFF0900A3FE039
:10046700FEA3E07802C333CE33CED8F9F0EE900A7C
:100477003FF0AFBEA3E02FF0900A3FE03400F0E07A
:10048700FCA3E0FDECFF90023BE4F0A3EFF0AF0527
:10049700A3E4F0A3EFF0900A377404F04488F5BCA6
:1004A700900A2DE0FEA3E0FF900A3FE0FCA3E0FDE9
:1004B700D39FEC9E4008900A2DECF0A3EDF0900A34
:0D04C70043E004F07006900A42E004F022C9
:1006D4009000A5E0FEA3E0FFD39408EE9402403618
:1006E400EF24F8FFEE34FDFE7C007D0A120E287D17
:1006F40016120E3A9000A5EEF0A3EFF09000A5E0DC
:10070400FCA3E0FDECFF90023FE4F0A3EFF0AF05A3
:10071400A3E4F0A3EFF0900021E0FEA3E0FFC39474
:1007240008EE94025037C374089FFF74029EFE7C47
:10073400007D0A120E287D16120E3A900021EEF06A
:10074400A3EFF0900021E0FCA3E0FDECFF90024356
:10075400E4F0A3EFF0AF05A3E4F0A3EFF0900127DA
:10076400E0FEA3E0FFD39408EE94024036EF24F8B1
:10077400FFEE34FDFE7C007D0A120E287D16120E5B
:100784003A900127EEF0A3EFF0900127E0FCA3E0FC
:10079400FDECFF900247E4F0A3EFF0AF05A3E4F013
:1007A400A3EFF0900023E0FEA3E0FFC39408EE94CF
:1007B400025037C374089FFF74029EFE7C007D0ABA
:1007C400120E287D16120E3A900023EEF0A3EFF0DD
:1007D400900023E0FCA3E0FDECFF90024BE4F0A3C7
:1007E400EFF0AF05A3E4F0A3EFF0900A2BE0FEA333
:1007F400E0FFD39454EE940150067C007D038015F1
:10080400900A2BE0FEA3E07802C333CE33CED8F9AE
:10081400FF7C007D11120E3A900A2BEEF0A3EFF04C
:10082400900A2BE0FCA3E0FDECFF90024FE4F0A360
:10083400EFF0AF05A3E4F0A3EFF0900A2DE0FEA3E0
:10084400E0FFD39454EE940150067C007D038015A0
:10085400900A2DE0FEA3E07802C333CE33CED8F95C
:10086400FF7C007D11120E3A900A2DEEF0A3EFF0FA
:10087400900A2DE0FCA3E0FDECFF900253E4F0A30A
:10088400EFF0AF05A3E4F0A3EFF09000217402F0C1
:10089400A37408F0E49000A5F0A3F0900A2BF0A351
:1008A400F09000237402F0A37408F0E4900127F0A0
:0908B400A3F0900A2DF0A3F0223C
:100CF700E4FF7E02EF25E0FF744A2EF582E4340A12
:100D0700F583E0D394034004EF4401FF0EEEB40AE9
:100D1700E3900257E4F0A3EFF0E4FF7E0AEF25E04B
:100D2700FF744A2EF582E4340AF583E0D394034036
:100D370004EF4401FF0EEEB412E3EFFD900259E415
:100D4700F0A3EDF07E12EF25E0FF744A2EF582E462
:100D5700340AF583E0D394034004EF4401FF0EEE19
:100D6700B41AE390025BE4F0A3EFF0E4FF7E1AEF1E
:100D770025E0FF744A2EF582E4340AF583E0D39424
:100D8700034004EF4401FF0EEEB422E390025DE45A
:040D9700F0A3EFF0E6
:010D9B002235
:1010E400AE071FEE600DE4FCFD0DED70010C4C60CD
:0310F400EF80F694
:0110F70022D6
:0D110700E4F5C7F5C5F5C675C380F5C42233
:1010B70075C78275C5018FC4EEF5C375C65A75C667
:0710C700A500AFC2121107E2
:0110CE0022FF
:10109E0075C78275C5028FC4EEF5C3AF058FC275D5
:0910AE00C65A75C6A5000211071F
:1010CF0075C78275C5038FC4EEF5C375C65A75C64D
:0510DF00A5000211074D
:03000000020D9C52
:0C0D9C00787FE4F6D8FD758120020DE39D
:100E2800EF8DF0A4A8F0CF8CF0A428CE8DF0A42EDE
:020E3800FE2298
:100E3A00BC000BBE0029EF8DF084FFADF022E4CC9C
:100E4A00F875F008EF2FFFEE33FEEC33FCEE9DEC65
:100E5A00984005FCEE9DFE0FD5F0E9E4CEFD22EDAB
:100E6A00F8F5F0EE8420D21CFEADF075F008EF2FF5
:100E7A00FFED33FD4007985006D5F0F222C398FDE6
:050E8A000FD5F0EA2283
:100E8F00A3F8E0C5F025F0F0E58215827002158316
:060E9F00E0C838F0E82273
:100DA800020A5DE493A3F8E493A34003F68001F2FA
:100DB80008DFF48029E493A3F85407240CC8C3334C
:100DC800C4540F4420C8834004F456800146F6DF1B
:100DD800E4800B0102040810204080900003E47EA8
:100DE800019360BCA3FF543F30E509541FFEE49310
:100DF800A360010ECF54C025E060A840B8E493A3D7
:100E0800FAE493A3F8E493A3C8C582C8CAC583CA01
:100E1800F0A3C8C582C8CAC583CADFE9DEE780BEB9
:0100070000F8
:00000001FF
