:1004D40000C1814001C0804101C0804100C1814010
:1004E40001C0804100C1814000C1814001C0804100
:1004F40001C0804100C1814000C1814001C08041F0
:1005040000C1814001C0804101C0804100C18140DF
:1005140001C0804100C1814000C1814001C08041CF
:1005240000C1814001C0804101C0804100C18140BF
:1005340000C1814001C0804101C0804100C18140AF
:1005440001C0804100C1814000C1814001C080419F
:1005540001C0804100C1814000C1814001C080418F
:1005640000C1814001C0804101C0804100C181407F
:1005740000C1814001C0804101C0804100C181406F
:1005840001C0804100C1814000C1814001C080415F
:1005940000C1814001C0804101C0804100C181404F
:1005A40001C0804100C1814000C1814001C080413F
:1005B40001C0804100C1814000C1814001C080412F
:1005C40000C1814001C0804101C0804100C181401F
:1005D40000C0C101C30302C2C60607C705C5C404DF
:1005E400CC0C0DCD0FCFCE0E0ACACB0BC90908C84F
:1005F400D81819D91BDBDA1A1EDEDF1FDD1D1CDC3F
:1006040014D4D515D71716D6D21213D311D1D010AE
:10061400F03031F133F3F23236F6F737F53534F49E
:100624003CFCFD3DFF3F3EFEFA3A3BFB39F9F8380E
:1006340028E8E929EB2B2AEAEE2E2FEF2DEDEC2CFE
:10064400E42425E527E7E62622E2E323E12120E06E
:10065400A06061A163A3A26266A6A767A56564A45E
:100664006CACAD6DAF6F6EAEAA6A6BAB69A9A868CE
:1006740078B8B979BB7B7ABABE7E7FBF7DBDBC7CBE
:10068400B47475B577B7B67672B2B373B17170B02E
:10069400509091519353529296565797559594541E
:1006A4009C5C5D9D5F9F9E5E5A9A9B5B995958988E
:1006B400884849894B8B8A4A4E8E8F4F8D4D4C8C7E
:1006C40044848545874746868242438341818040EE
:04000300410A370077
:1008BD00120F00120F2F12000E120FA9D2AF120934
:1008CD00EA900020E0F599900A377402F07F0A1241
:1008DD000F957F007E40120F68900A36EFF0900062
:1008ED0020F0D3900A7DE094C8900A7CE0940040FB
:1008FD0033E4F0A3F0900A7FE004F07006900A7ED6
:10090D00E004F0900A81E004F07006900A80E004A3
:10091D00F0D3900A7FE09464900A7EE09400400446
:10092D00E4F0A3F0900A80E0FEA3E0FFC3940AEE8A
:10093D0094005009C2B2E4900A3CF08039C3EF94A0
:10094D0020EE94035004D2B2802CC3EF942AEE947F
:10095D00035019BE0320BF201D120B57900A81E0D2
:10096D0004F07012900A80E004F0800AE4900A808E
:10097D00F0A3F0120E62C3900A45E09490900A44E1
:10098D00E09401402EE4F0A3F0900A32E0D39400FD
:10099D004008120046E4900A32F01202A7C3900AF2
:1009AD0043E094F4900A42E094014007E4F0A3F090
:1009BD001206D4C3900A49E09490900A48E094013D
:1009CD004015E4F0A3F0900A33E0D39400400812F0
:0D09DD000AA4E4900A33F01200260208EF8D
:100E6200900A31E004F0D2A7900A307411F0900A8F
:100E7200357401F0E49001ABF0A3F0A3F0A3741079
:100E8200F09001B17420F0900A31E0B4010A9001AF
:100E9200AF7433F0A2B4800DE4900A31F09001AF48
:100EA2007434F0A2B5E433A3F0E02430F0E4F59B0F
:010EB200221D
:100AA400900A33E0D394005003020B569000A7E061
:100AB4006003020B5604F0A3E06003020B56A3E0AC
:100AC4006003020B56A3E0643070509000ADE05414
:100AD4000F900A36F09000ACE0540F75F00AA4FFB2
:100AE400900A36E02FF09000ABE0540F75F064A448
:100AF400FF900A36E02FF07F007E40120F80900AAC
:100B040036E0FD7F007E40120F4F7F007E40120FC3
:100B140068900A36EFF0900020F0229000AAE0FDE1
:100B2400B4311620B40BE490022DF0A3E054FEF08F
:100B34002290022EE04401F022EDB4321520B50BD0
:100B4400E490022DF0A3E054FDF02290022EE04444
:030B540002F0228A
:100F0000759850438E40538EFE53890F758BC7756D
:100F10008DFEC2ABD28ED2AC759A50438E0475D77B
:0F0F2000C775D6FE438E1043AF01C2A7C2CD22C4
:100F2F0075913C75923CE4F593F594F595F596F52E
:100F3F00B1F5B2F5C9F5CA90022DF0A37403F022F2
:10000E00758A88758CFFC28DD28C438E805389FC85
:05001E00D2A9D28C22E2
:0F0FA900759D3CE4F5BD900A37E04488F5BC2205
:03000B00020D05DE
:100D0500C0E0C083C082C0D075D000C007900A7D06
:100D1500E004F07006900A7CE004F030A110D200E7
:100D2500900A41E0C3940A5029E004F08024300081
:100D350021C200900A41E0FF900A3CE0244AF58276
:100D4500E4340AF583EFF0900A3CE004F0900A41A0
:100D5500E4F0900A45E004F07006900A44E004F0DF
:100D6500900A49E004F07006900A48E004F0D007C4
:090D7500D0D0D082D083D0E0324E
:03002300020DF3D8
:100DF300C0E0C083C082C0D075D000C006C0073039
:100E03009826C298900A44E4F0A3F0900A32E0FFD7
:100E1300C39480501374252FF582E43400F583E5E1
:100E230099F0900A32E004F0309927C299900A2F82
:100E3300E0FF900A34E0FEC39F501574252EF5821F
:100E4300E43400F583E0F599900A34E004F080027D
:0F0E5300C2CDD007D006D0D0D082D083D0E0322D
:03004300020D7E2D
:100D7E00C0E0C083C082C0D075D000C006C007E5F9
:100D8E009A30E027539AFE900A48E4F0A3F0900AB6
:100D9E0033E0FFC39480501374A72FF582E4340020
:100DAE00F583E59BF0900A33E004F0E59A30E128F4
:100DBE00539AFD900A30E0FF900A35E0FEC39F5033
:100DCE001574AB2EF582E43401F583E0F59B900AA1
:100DDE0035E004F08002C2A7D007D006D0D0D08272
:050DEE00D083D0E032CB
:1009EA0020B60990022CE04401F0800AE490022B20
:1009FA00F0A3E054FEF020B70990022CE04402F084
:100A0A00800AE490022BF0A3E054FDF020A00990A4
:100A1A00022CE04404F0800AE490022BF0A3E05494
:100A2A00FBF020A10990022CE04408F0800AE4902F
:100A3A00022BF0A3E054F7F020A20990022CE04424
:100A4A0010F0800AE490022BF0A3E054EFF020A308
:100A5A000990022CE04420F0800AE490022BF0A3D3
:100A6A00E054DFF020A40990022CE04440F0800A10
:100A7A00E490022BF0A3E054BFF020A50990022CC9
:100A8A00E04480F0800AE490022BF0A3E0547FF067
:0A0A9A0090022BA3E0900020F02250
:080EB300900A88EEF0A3EFF0B5
:100EBB007FFF7DFFE4F9900A8874FFF5F0120CEFC9
:100ECB0045F0602C742529F582E43400F583E06D40
:100EDB00FB7A000924D4F582EA3404F583E4936F9A
:100EEB00FD74D42BF582EA3405F583E493FF80C6B9
:040EFB00EFFEEDFF1A
:010EFF0022D0
:10004600900020E0FF900025E06F60030202A6907A
:100056000A32E024FEFFE434FFFE120EB3AD07AC15
:1000660006900A32E0FB2424F582E43400F583E0AE
:10007600FE74232BF582E43400F583E07A00240035
:10008600FFEA3EFEEF6D7002EE6C60030202A69080
:100096000027E0FF900A82E4F0A3EFF0E0F8E4F036
:1000A600E8900A82F0900028E0FF900A83E02FF0A3
:1000B600900A82E03400F0A3E025E0F0900A82E0A6
:1000C60033F0900026E0640360030201A1900A3237
:1000D600E02422F582E43400F583E075F002A4FF03
:1000E600AEF0900A84EEF0A3EFF09000267403F0D1
:1000F600A3EFF0900A86E4F0A37403F0900A85E07B
:100106002403FF900A84E03400FE900A86E0FAA3F6
:10011600E0FBC39FEA9E5044900A83E025E0FF90EF
:100126000A82E033FE742B2FF58274023EF583A318
:10013600E0FF74252BF58274003AF583EFF0900A00
:1001460083E004F07006900A82E004F0900A87E0EB
:1001560004F070A8900A86E004F080A0D2CD900A40
:1001660085E02403FF900A84E03400FE120EB3AC4F
:1001760006AD07ECFF900A84E0FAA3E0FB2429F51C
:100186008274003AF583EFF0AF0574282BF582747C
:10019600003AF583EFF0EB2405805F900026E0F946
:1001A6006406705C900029E0FD900A83E025E0FF7C
:1001B600900A82E033FE742B2FF58274023EF5839B
:1001C600E4F0A3EDF0900A83E004F07006900A8252
:1001D600E004F090002AE0FD900A83E025E0FF901D
:1001E6000A82E033FE742B2FF58274023EF583E417
:1001F600F0A3EDF0D2CD900A32E0900A2F020299D8
:10020600E9641060030202A690002BE02407FEE4D6
:1002160033900A84F0A3CEF0A3E4F0A37407F09021
:100226000A84E0FEA3E0FFA3E0FAA3E0FBC39FEA93
:100236009E504674252BF58274003AF583E0FB90B8
:100246000A83E025E0FF900A82E033FE742B2FF547
:100256008274023EF583E4F0A3EBF0900A83E00497
:10026600F07006900A82E004F0900A87E004F070CD
:10027600AE900A86E004F080A67F067E00120EB3DA
:10028600AC06EC90002CF090002BEFF0D2CD900A4B
:100296002F7408F0900A347401F0900020E0F5996C
:0102A6002235
:1000260090022DA3E0FF30E004C2B48002D2B4EF08
:0900360030E103C2B522D2B5226B
:1002A700900A37E0FD6404600302033CAFBDA3F08E
:1002B700A3EFF0900A38E0FEA3E07802C333CE3311
:1002C700CED8F9F0EE900A38F0AFBEA3E02FF09049
:1002D7000A38E03400F0E0FAA3E0FBEAFF90022FCF
:1002E700E4F0A3EFF0AF03A3E4F0A3EFF0900A3735
:1002F7007405F04488F5BC9000A5E0FEA3E0FF90EC
:100307000A38E0FAA3E0FBD39FEA9E40099000A5D4
:10031700EAF0A3EBF022900021E0FEA3E0FFC3EB9D
:100327009FEA9E40030204D3900A38E0FFA3E090BF
:1003370000210203CCED640560030203D2AFBD9038
:100347000A3AF0A3EFF0900A3AE0FEA3E07802C37E
:1003570033CE33CED8F9F0EE900A3AF0AFBEA3E031
:100367002FF0900A3AE03400F0E0FCA3E0FDECFF48
:10037700900233E4F0A3EFF0AF05A3E4F0A3EFF0AE
:10038700900A377402F04488F5BC900127E0FEA379
:10039700E0FF900A3AE0FCA3E0FDD39FEC9E400902
:1003A700900127ECF0A3EDF022900023E0FEA3E0FC
:1003B700FFC3ED9FEC9E40030204D3900A3AE0FF8F
:1003C700A3E0900023CFF0A3EFF022900A37E0FDDF
:1003D7006402707AAFBD900A3DF0A3EFF0900A3D3A
:1003E700E0FEA3E07802C333CE33CED8F9F0EE9027
:1003F7000A3DF0AFBEA3E02FF0900A3DE03400F0D5
:10040700E0FAA3E0FBEAFF900237E4F0A3EFF0AFD6
:1004170003A3E4F0A3EFF0900A377403F04488F5E0
:10042700BC900A2BE0FEA3E0FF900A3DE0FAA3E0B0
:10043700FBD39FEA9E4008900A2BEAF0A3EBF090CB
:100447000A43E004F07006900A42E004F022ED64EB
:10045700037079AFBD900A3FF0A3EFF0900A3FE039
:10046700FEA3E07802C333CE33CED8F9F0EE900A7C
:100477003FF0AFBEA3E02FF0900A3FE03400F0E07A
:10048700FCA3E0FDECFF90023BE4F0A3EFF0AF0527
:10049700A3E4F0A3EFF0900A377404F04488F5BCA6
:1004A700900A2DE0FEA3E0FF900A3FE0FCA3E0FDE9
:1004B700D39FEC9E4008900A2DECF0A3EDF0900A34
:0D04C70043E004F07006900A42E004F022C9
:1006D4009000A5E0FEA3E0FFD39408EE9402403618
:1006E400EF24F8FFEE34FDFE7C007D0A120C887DB9
:1006F40016120C9A9000A5EEF0A3EFF09000A5E07E
:10070400FCA3E0FDECFF90023FE4F0A3EFF0AF05A3
:10071400A3E4F0A3EFF0900021E0FEA3E0FFC39474
:1007240008EE94025037C374089FFF74029EFE7C47
:10073400007D0A120C887D16120C9A900021EEF0AE
:10074400A3EFF0900021E0FCA3E0FDECFF90024356
:10075400E4F0A3EFF0AF05A3E4F0A3EFF0900127DA
:10076400E0FEA3E0FFD39408EE94024036EF24F8B1
:10077400FFEE34FDFE7C007D0A120C887D16120CFF
:100784009A900127EEF0A3EFF0900127E0FCA3E09C
:10079400FDECFF900247E4F0A3EFF0AF05A3E4F013
:1007A400A3EFF0900023E0FEA3E0FFC39408EE94CF
:1007B400025037C374089FFF74029EFE7C007D0ABA
:1007C400120C887D16120C9A900023EEF0A3EFF021
:1007D400900023E0FCA3E0FDECFF90024BE4F0A3C7
:1007E400EFF0AF05A3E4F0A3EFF0900A2BE0FEA333
:1007F400E0FFD39454EE940150067C007D038015F1
:10080400900A2BE0FEA3E07802C333CE33CED8F9AE
:10081400FF7C007D11120C9A900A2BEEF0A3EFF0EE
:10082400900A2BE0FCA3E0FDECFF90024FE4F0A360
:10083400EFF0AF05A3E4F0A3EFF0900A2DE0FEA3E0
:10084400E0FFD39454EE940150067C007D038015A0
:10085400900A2DE0FEA3E07802C333CE33CED8F95C
:10086400FF7C007D11120C9A900A2DEEF0A3EFF09C
:10087400900A2DE0FCA3E0FDECFF900253E4F0A30A
:10088400EFF0AF05A3E4F0A3EFF09000217402F0C1
:10089400A37408F0E49000A5F0A3F0900A2BF0A351
:1008A400F09000237402F0A37408F0E4900127F0A0
:0908B400A3F0900A2DF0A3F0223C
:100B5700E4FF7E02EF25E0FF744A2EF582E4340AB3
:100B6700F583E0D394034004EF4401FF0EEEB40A8B
:100B7700E3900257E4F0A3EFF0E4FF7E0AEF25E0ED
:100B8700FF744A2EF582E4340AF583E0D3940340D8
:100B970004EF4401FF0EEEB412E3EFFD900259E4B7
:100BA700F0A3EDF07E12EF25E0FF744A2EF582E404
:100BB700340AF583E0D394034004EF4401FF0EEEBB
:100BC700B41AE390025BE4F0A3EFF0E4FF7E1AEFC0
:100BD70025E0FF744A2EF582E4340AF583E0D394C6
:100BE700034004EF4401FF0EEEB422E390025DE4FC
:040BF700F0A3EFF088
:010BFB0022D7
:100F9500AE071FEE600DE4FCFD0DED70010C4C601D
:030FA500EF80F6E4
:010FA8002226
:0D0FB800E4F5C7F5C5F5C675C380F5C42284
:100F680075C78275C5018FC4EEF5C375C65A75C6B7
:070F7800A500AFC2120FB883
:010F7F00224F
:100F4F0075C78275C5028FC4EEF5C3AF058FC27525
:090F5F00C65A75C6A500020FB8C0
:100F800075C78275C5038FC4EEF5C375C65A75C69D
:050F9000A500020FB8EE
:03000000020BFCF4
:0C0BFC00787FE4F6D8FD758120020C43E0
:100C8800EF8DF0A4A8F0CF8CF0A428CE8DF0A42E80
:020C9800FE223A
:100C9A00BC000BBE0029EF8DF084FFADF022E4CC3E
:100CAA00F875F008EF2FFFEE33FEEC33FCEE9DEC07
:100CBA00984005FCEE9DFE0FD5F0E9E4CEFD22ED4D
:100CCA00F8F5F0EE8420D21CFEADF075F008EF2F97
:100CDA00FFED33FD4007985006D5F0F222C398FD88
:050CEA000FD5F0EA2225
:100CEF00A3F8E0C5F025F0F0E582158270021583B8
:060CFF00E0C838F0E82215
:100C08000208BDE493A3F8E493A34003F68001F23D
:100C180008DFF48029E493A3F85407240CC8C333ED
:100C2800C4540F4420C8834004F456800146F6DFBC
:100C3800E4800B0102040810204080900003E47E49
:100C4800019360BCA3FF543F30E509541FFEE493B1
:100C5800A360010ECF54C025E060A840B8E493A378
:100C6800FAE493A3F8E493A3C8C582C8CAC583CAA3
:100C7800F0A3C8C582C8CAC583CADFE9DEE780BE5B
:0100070000F8
:00000001FF
