:1004D40000C1814001C0804101C0804100C1814010
:1004E40001C0804100C1814000C1814001C0804100
:1004F40001C0804100C1814000C1814001C08041F0
:1005040000C1814001C0804101C0804100C18140DF
:1005140001C0804100C1814000C1814001C08041CF
:1005240000C1814001C0804101C0804100C18140BF
:1005340000C1814001C0804101C0804100C18140AF
:1005440001C0804100C1814000C1814001C080419F
:1005540001C0804100C1814000C1814001C080418F
:1005640000C1814001C0804101C0804100C181407F
:1005740000C1814001C0804101C0804100C181406F
:1005840001C0804100C1814000C1814001C080415F
:1005940000C1814001C0804101C0804100C181404F
:1005A40001C0804100C1814000C1814001C080413F
:1005B40001C0804100C1814000C1814001C080412F
:1005C40000C1814001C0804101C0804100C181401F
:1005D40000C0C101C30302C2C60607C705C5C404DF
:1005E400CC0C0DCD0FCFCE0E0ACACB0BC90908C84F
:1005F400D81819D91BDBDA1A1EDEDF1FDD1D1CDC3F
:1006040014D4D515D71716D6D21213D311D1D010AE
:10061400F03031F133F3F23236F6F737F53534F49E
:100624003CFCFD3DFF3F3EFEFA3A3BFB39F9F8380E
:1006340028E8E929EB2B2AEAEE2E2FEF2DEDEC2CFE
:10064400E42425E527E7E62622E2E323E12120E06E
:10065400A06061A163A3A26266A6A767A56564A45E
:100664006CACAD6DAF6F6EAEAA6A6BAB69A9A868CE
:1006740078B8B979BB7B7ABABE7E7FBF7DBDBC7CBE
:10068400B47475B577B7B67672B2B373B17170B02E
:10069400509091519353529296565797559594541E
:1006A4009C5C5D9D5F9F9E5E5A9A9B5B995958988E
:1006B400884849894B8B8A4A4E8E8F4F8D4D4C8C7E
:1006C40044848545874746868242438341818040EE
:04000300410A160098
:100A0000120F3C120F6B12000E120FE5D2AF120B39
:100A10002A900000E0F599900A167402F07F0A12FD
:100A20000FD17F007E40120FA4900A15EFF09000C6
:100A300000F0D3900A5CE094C8900A5BE094004018
:100A400033E4F0A3F0900A5EE004F07006900A5DD3
:100A5000E004F0900A60E004F07006900A5FE004A1
:100A6000F0D3900A5EE09464900A5DE09400400444
:100A7000E4F0A3F0900A5FE0FEA3E0FFC3940AEE67
:100A800094005009C2B2E4900A1BF08036C3EF9480
:100A900020EE94035004D2B28029C3EF942AEE943E
:100AA000035019BE031DBF201A120BE4900A60E028
:100AB00004F0700F900A5FE004F08007E4900A5F92
:100AC000F0A3F0C3900A24E09490900A23E09401EC
:100AD000402EE4F0A3F0900A11E0D39400400812F5
:100AE0000046E4900A11F01202A7C3900A22E09493
:100AF000F4900A21E094014007E4F0A3F01206D438
:100B0000C3900A28E09490900A27E094014015E4ED
:100B1000F0A3F0900A12E0D3940040081208BDE45C
:0A0B2000900A12F0120026020A32B9
:1008BD00900A12E0D3940050030209FF900087E0E4
:1008CD00600302097304F0A3E06003020973A3E05F
:1008DD006003020973A3E06430705190008DE05401
:1008ED000F900A15F090008CE0540F75F00AA4FFDC
:1008FD00900A15E02FF090008BE0540F75F064A472
:10090D00FF900A15E02FF07F007E40120FBC900A79
:10091D0015E0FD7F007E40120F8B7F007E40120F91
:10092D00A4900A15EFF0900000F0803A90008AE054
:10093D00FDB4311820B40CE490020DF0A3E054FE88
:10094D00F0802390020EE04401F0801AEDB43216CF
:10095D0020B50CE490020DF0A3E054FDF08007905B
:10096D00020EE04402F0D2A7900A107411F0900A22
:10097D00147401F0E490018BF0FFA3F0A3F0A374C5
:10098D0010F0900A15E090018FF0A2B4B3E433A3F8
:10099D00F0E02430F0A2B5B3E433A3F0E02430F05E
:1009AD0090021FA3E0900192F0900221A3E090012C
:1009BD0093F0900227A3E0900194F0900229A3E018
:1009CD00900195F090022FA3E0900196F0900231E6
:1009DD00A3E0900197F0900233A3E0900198F0907E
:1009ED000235A3E0900199F0A3740DF0A3740AF001
:0209FD008F9BCE
:0109FF0022D5
:100F3C00759850438E40538EFE53890F758BC77531
:100F4C008DFEC2ABD28ED2AC759A50438E0475D73F
:0F0F5C00C775D6FE438E1043AF01C2A7C2CD2288
:100F6B0075913C75923CE4F593F594F595F596F5F2
:100F7B00B1F5B2F5C9F5CA90020DF0A37403F022D6
:10000E00758A88758CFFC28DD28C438E805389FC85
:05001E00D2A9D28C22E2
:0F0FE500759D3CE4F5BD900A16E04488F5BC22EA
:03000B00020D9251
:100D9200C0E0C083C082C0D075D000C007900A5C9A
:100DA200E004F07006900A5BE004F030A110D2007B
:100DB200900A20E0C3940A5029E004F08024300015
:100DC20021C200900A20E0FF900A1BE02429F5824C
:100DD200E4340AF583EFF0900A1BE004F0900A2055
:100DE200E4F0900A24E004F07006900A23E004F094
:100DF200900A28E004F07006900A27E004F0D00779
:090E0200D0D0D082D083D0E032C0
:03002300020E804A
:100E8000C0E0C083C082C0D075D000C006C00730AB
:100E90009826C298900A23E4F0A3F0900A11E0FF8C
:100EA000C39480501374052FF582E43400F583E574
:100EB00099F0900A11E004F0309927C299900A0F36
:100EC000E0FF900A13E0FEC39F501574052EF582D3
:100ED000E43400F583E0F599900A13E004F0800211
:0F0EE000C2CDD007D006D0D0D082D083D0E032A0
:03004300020E0B9F
:100E0B00C0E0C083C082C0D075D000C006C007E56B
:100E1B009A30E027539AFE900A27E4F0A3F0900A49
:100E2B0012E0FFC39480501374872FF582E43400D3
:100E3B00F583E59BF0900A12E004F0E59A30E12887
:100E4B00539AFD900A10E0FF900A14E0FEC39F50E6
:100E5B0015748B2EF582E43401F583E0F59B900A33
:100E6B0014E004F08002C2A7D007D006D0D0D08205
:050E7B00D083D0E0323D
:100B2A0020B60990020CE04401F0800AE490020B1E
:100B3A00F0A3E054FEF020B70990020CE04402F062
:100B4A00800AE490020BF0A3E054FDF020A0099083
:100B5A00020CE04404F0800AE490020BF0A3E05493
:100B6A00FBF020A10990020CE04408F0800AE4900E
:100B7A00020BF0A3E054F7F020A20990020CE04423
:100B8A0010F0800AE490020BF0A3E054EFF020A3E7
:100B9A000990020CE04420F0800AE490020BF0A3D2
:100BAA00E054DFF020A40990020CE04440F0800AEF
:100BBA00E490020BF0A3E054BFF020A50990020CC8
:100BCA00E04480F0800AE490020BF0A3E0547FF046
:0A0BDA0090020BA3E0900000F0224F
:080EEF00900A67EEF0A3EFF09A
:100EF7007FFF7DFFE4F9900A6774FFF5F0120D7C20
:100F070045F0602C740529F582E43400F583E06D23
:100F1700FB7A000924D4F582EA3404F583E4936F5D
:100F2700FD74D42BF582EA3405F583E493FF80C67C
:040F3700EFFEEDFFDD
:010F3B002293
:10004600900000E0FF900005E06F60030202A690BA
:100056000A11E024FEFFE434FFFE120EEFAD07ACFA
:1000660006900A11E0FB2404F582E43400F583E0EF
:10007600FE74032BF582E43400F583E07A00240055
:10008600FFEA3EFEEF6D7002EE6C60030202A69080
:100096000007E0FF900A61E4F0A3EFF0E0F8E4F077
:1000A600E8900A61F0900008E0FF900A62E02FF005
:1000B600900A61E03400F0A3E025E0F0900A61E0E8
:1000C60033F0900006E0640360030201A1900A1178
:1000D600E02402F582E43400F583E075F002A4FF23
:1000E600AEF0900A63EEF0A3EFF09000067403F012
:1000F600A3EFF0900A65E4F0A37403F0900A64E0BD
:100106002403FF900A63E03400FE900A65E0FAA338
:10011600E0FBC39FEA9E5044900A62E025E0FF9010
:100126000A61E033FE740B2FF58274023EF583A359
:10013600E0FF74052BF58274003AF583EFF0900A20
:1001460062E004F07006900A61E004F0900A66E04E
:1001560004F070A8900A65E004F080A0D2CD900A61
:1001660064E02403FF900A63E03400FE120EEFAC55
:1001760006AD07ECFF900A63E0FAA3E0FB2409F55D
:100186008274003AF583EFF0AF0574082BF582749C
:10019600003AF583EFF0EB2405805F900006E0F966
:1001A6006406705C900009E0FD900A62E025E0FFBD
:1001B600900A61E033FE740B2FF58274023EF583DC
:1001C600E4F0A3EDF0900A62E004F07006900A6194
:1001D600E004F090000AE0FD900A62E025E0FF905E
:1001E6000A61E033FE740B2FF58274023EF583E458
:1001F600F0A3EDF0D2CD900A11E0900A0F02029919
:10020600E9641060030202A690000BE02407FEE4F6
:1002160033900A63F0A3CEF0A3E4F0A37407F09042
:100226000A63E0FEA3E0FFA3E0FAA3E0FBC39FEAB4
:100236009E504674052BF58274003AF583E0FB90D8
:100246000A62E025E0FF900A61E033FE740B2FF5A9
:100256008274023EF583E4F0A3EBF0900A62E004B8
:10026600F07006900A61E004F0900A66E004F0700F
:10027600AE900A65E004F080A67F067E00120EEFBF
:10028600AC06EC90000CF090000BEFF0D2CD900A8B
:100296000F7408F0900A137401F0900000E0F599CD
:0102A6002235
:1000260090020DA3E0FF30E004C2B48002D2B4EF28
:0900360030E103C2B522D2B5226B
:1002A700900A16E0FD6404600302033CAFBDA3F0AF
:1002B700A3EFF0900A17E0FEA3E07802C333CE3332
:1002C700CED8F9F0EE900A17F0AFBEA3E02FF0906A
:1002D7000A17E03400F0E0FAA3E0FBEAFF90020F10
:1002E700E4F0A3EFF0AF03A3E4F0A3EFF0900A1656
:1002F7007405F04488F5BC900085E0FEA3E0FF900C
:100307000A17E0FAA3E0FBD39FEA9E400990008515
:10031700EAF0A3EBF022900001E0FEA3E0FFC3EBBD
:100327009FEA9E40030204D3900A17E0FFA3E090E0
:1003370000010203CCED640560030203D2AFBD9058
:100347000A19F0A3EFF0900A19E0FEA3E07802C3C0
:1003570033CE33CED8F9F0EE900A19F0AFBEA3E052
:100367002FF0900A19E03400F0E0FCA3E0FDECFF69
:10037700900213E4F0A3EFF0AF05A3E4F0A3EFF0CE
:10038700900A167402F04488F5BC900107E0FEA3BA
:10039700E0FF900A19E0FCA3E0FDD39FEC9E400923
:1003A700900107ECF0A3EDF022900003E0FEA3E03C
:1003B700FFC3ED9FEC9E40030204D3900A19E0FFB0
:1003C700A3E0900003CFF0A3EFF022900A16E0FD20
:1003D7006402707AAFBD900A1CF0A3EFF0900A1C7C
:1003E700E0FEA3E07802C333CE33CED8F9F0EE9027
:1003F7000A1CF0AFBEA3E02FF0900A1CE03400F017
:10040700E0FAA3E0FBEAFF900217E4F0A3EFF0AFF6
:1004170003A3E4F0A3EFF0900A167403F04488F501
:10042700BC900A0BE0FEA3E0FF900A1CE0FAA3E0F1
:10043700FBD39FEA9E4008900A0BEAF0A3EBF090EB
:100447000A22E004F07006900A21E004F022ED642D
:10045700037079AFBD900A1EF0A3EFF0900A1EE07B
:10046700FEA3E07802C333CE33CED8F9F0EE900A7C
:100477001EF0AFBEA3E02FF0900A1EE03400F0E0BC
:10048700FCA3E0FDECFF90021BE4F0A3EFF0AF0547
:10049700A3E4F0A3EFF0900A167404F04488F5BCC7
:1004A700900A0DE0FEA3E0FF900A1EE0FCA3E0FD2A
:1004B700D39FEC9E4008900A0DECF0A3EDF0900A54
:0D04C70022E004F07006900A21E004F0220B
:1006D400900085E0FEA3E0FFD39408EE9402403638
:1006E400EF24F8FFEE34FDFE7C007D0A120D157D2B
:1006F40016120D27900085EEF0A3EFF0900085E030
:10070400FCA3E0FDECFF90021FE4F0A3EFF0AF05C3
:10071400A3E4F0A3EFF0900001E0FEA3E0FFC39494
:1007240008EE94025037C374089FFF74029EFE7C47
:10073400007D0A120D157D16120D27900001EEF0B2
:10074400A3EFF0900001E0FCA3E0FDECFF90022396
:10075400E4F0A3EFF0AF05A3E4F0A3EFF0900107FA
:10076400E0FEA3E0FFD39408EE94024036EF24F8B1
:10077400FFEE34FDFE7C007D0A120D157D16120D70
:1007840027900107EEF0A3EFF0900107E0FCA3E04F
:10079400FDECFF900227E4F0A3EFF0AF05A3E4F033
:1007A400A3EFF0900003E0FEA3E0FFC39408EE94EF
:1007B400025037C374089FFF74029EFE7C007D0ABA
:1007C400120D157D16120D27900003EEF0A3EFF025
:1007D400900003E0FCA3E0FDECFF90022BE4F0A307
:1007E400EFF0AF05A3E4F0A3EFF0900A0BE0FEA353
:1007F400E0FFD39454EE940150067C007D038015F1
:10080400900A0BE0FEA3E07802C333CE33CED8F9CE
:10081400FF7C007D11120D27900A0BEEF0A3EFF080
:10082400900A0BE0FCA3E0FDECFF90022FE4F0A3A0
:10083400EFF0AF05A3E4F0A3EFF0900A0DE0FEA300
:10084400E0FFD39454EE940150067C007D038015A0
:10085400900A0DE0FEA3E07802C333CE33CED8F97C
:10086400FF7C007D11120D27900A0DEEF0A3EFF02E
:10087400900A0DE0FCA3E0FDECFF900233E4F0A34A
:10088400EFF0AF05A3E4F0A3EFF09000017402F0E1
:10089400A37408F0E4900085F0A3F0900A0BF0A391
:1008A400F09000037402F0A37408F0E4900107F0E0
:0908B400A3F0900A0DF0A3F0225C
:100BE400E4FF7E02EF25E0FF74292EF582E4340A47
:100BF400F583E0D394034004EF4401FF0EEEB40AFE
:100C0400E3900237E4F0A3EFF0E4FF7E0AEF25E07F
:100C1400FF74292EF582E4340AF583E0D39403406B
:100C240004EF4401FF0EEEB412E3EFFD900239E449
:100C3400F0A3EDF07E12EF25E0FF74292EF582E497
:100C4400340AF583E0D394034004EF4401FF0EEE2D
:100C5400B41AE390023BE4F0A3EFF0E4FF7E1AEF52
:100C640025E0FF74292EF582E4340AF583E0D39459
:100C7400034004EF4401FF0EEEB422E390023DE48E
:040C8400F0A3EFF0FA
:010C88002249
:100FD100AE071FEE600DE4FCFD0DED70010C4C60E1
:030FE100EF80F6A8
:010FE40022EA
:0D0FF400E4F5C7F5C5F5C675C380F5C42248
:100FA40075C78275C5018FC4EEF5C375C65A75C67B
:070FB400A500AFC2120FF40B
:010FBB002213
:100F8B0075C78275C5028FC4EEF5C3AF058FC275E9
:090F9B00C65A75C6A500020FF448
:100FBC0075C78275C5038FC4EEF5C375C65A75C661
:050FCC00A500020FF476
:03000000020C8966
:0C0C8900787FE4F6D8FD758120020CD0C5
:100D1500EF8DF0A4A8F0CF8CF0A428CE8DF0A42EF2
:020D2500FE22AC
:100D2700BC000BBE0029EF8DF084FFADF022E4CCB0
:100D3700F875F008EF2FFFEE33FEEC33FCEE9DEC79
:100D4700984005FCEE9DFE0FD5F0E9E4CEFD22EDBF
:100D5700F8F5F0EE8420D21CFEADF075F008EF2F09
:100D6700FFED33FD4007985006D5F0F222C398FDFA
:050D77000FD5F0EA2297
:100D7C00A3F8E0C5F025F0F0E5821582700215832A
:060D8C00E0C838F0E82287
:100C9500020A00E493A3F8E493A34003F68001F26B
:100CA50008DFF48029E493A3F85407240CC8C33360
:100CB500C4540F4420C8834004F456800146F6DF2F
:100CC500E4800B0102040810204080900003E47EBC
:100CD500019360BCA3FF543F30E509541FFEE49324
:100CE500A360010ECF54C025E060A840B8E493A3EB
:100CF500FAE493A3F8E493A3C8C582C8CAC583CA16
:100D0500F0A3C8C582C8CAC583CADFE9DEE780BECD
:0100070000F8
:00000001FF
